:020000000328D3
:10000600831686011F308500831286010130860023
:100016000630CB001330CC00AD30CD00CD0B11280F
:10002600CC0B1128CB0B11280000000003308600F2
:100036000630CB001330CC00AD30CD00CD0B2128DF
:10004600CC0B2128CB0B21280000000007308600AE
:100056000630CB001330CC00AD30CD00CD0B3128AF
:10006600CC0B3128CB0B3128000000000F30860066
:100076000630CB001330CC00AD30CD00CD0B41287F
:10008600CC0B4128CB0B4128000000001F30860016
:100096000630CB001330CC00AD30CD00CD0B51284F
:1000A600CC0B5128CB0B5128000000003F308600B6
:1000B6000630CB001330CC00AD30CD00CD0B61281F
:1000C600CC0B6128CB0B6128000000007F30860036
:1000D6000630CB001330CC00AD30CD00CD0B7128EF
:1000E600CC0B7128CB0B712800000000FF30860076
:1000F6000630CB001330CC00AD30CD00CD0B8128BF
:10010600CC0B8128CB0B8128000000007F308600B5
:100116000630CB001330CC00AD30CD00CD0B91288E
:10012600CC0B9128CB0B9128000000003F308600B5
:100136000630CB001330CC00AD30CD00CD0BA1285E
:10014600CC0BA128CB0BA128000000001F30860095
:100156000630CB001330CC00AD30CD00CD0BB1282E
:10016600CC0BB128CB0BB128000000000F30860065
:100176000630CB001330CC00AD30CD00CD0BC128FE
:10018600CC0BC128CB0BC12800000000073086002D
:100196000630CB001330CC00AD30CD00CD0BD128CE
:1001A600CC0BD128CB0BD1280000000003308600F1
:1001B6000630CB001330CC00AD30CD00CD0BE1289E
:1001C600CC0BE128CB0BE1280000000001308600B3
:1001D6000630CB001330CC00AD30CD00CD0BF1286E
:1001E600CC0BF128CB0BF128000000000928FA28D7
:02400E00FA3F77
:00000001FF
