:020000000328D3
:1000060083168601C901CA0180304A06C0008030C5
:100016004002031D10280A30490203183628FF3013
:10002600831286000630CB001330CC00AD30CD00F5
:10003600CD0B1B28CC0B1B28CB0B1B28000000006C
:1000460086010630CB001330CC00AD30CD00CD0B91
:100056002A28CC0B2A28CB0B2A2800000000C90A24
:100066000319CA0A0728C701C80180304806C0001C
:1000760080304002031D41280A30470203186928D0
:10008600831206148614061586150630CB00133027
:10009600CC00AD30CD00CD0B4E28CC0B4E28CB0B73
:1000A6004E280000000086010630CB001330CC003D
:1000B600AD30CD00CD0B5D28CC0B5D28CB0B5D287C
:1000C60000000000C70A0319C80A3828C501C6017E
:1000D60080304606C00080304002031D74280A3076
:1000E600450203189C2883120616861606178617DD
:1000F6000630CB001330CC00AD30CD00CD0B8128BF
:10010600CC0B8128CB0B812800000000860106302D
:10011600CB001330CC00AD30CD00CD0B9028CC0BEE
:100126009028CB0B902800000000C50A0319C60AC8
:100136006B28C301C40180304406C00080304002F1
:10014600031DA7280A3043020318CF28831206147A
:100156000615061606170630CB001330CC00AD3058
:10016600CD00CD0BB428CC0BB428CB0BB4280000A3
:10017600000086010630CB001330CC00AD30CD0038
:10018600CD0BC328CC0BC328CB0BC3280000000023
:10019600C30A0319C40A9E28C101C201803042065F
:1001A600C00080304002031DDA280A3041020318DD
:1001B6000229831286148615861686170630CB000A
:1001C6001330CC00AD30CD00CD0BE728CC0BE728A3
:1001D600CB0BE7280000000086010630CB00133069
:1001E600CC00AD30CD00CD0BF628CC0BF628CB0BD2
:1001F600F62800000000C10A0319C20AD128022904
:02400E00FA3F77
:00000001FF
